{
  "contractName": "NewLottery",
  "abi": [
    {
      "inputs": [],
      "payable": true,
      "stateMutability": "payable",
      "type": "constructor"
    },
    {
      "anonymous": false,
      "inputs": [],
      "name": "BettingPhase",
      "type": "event"
    },
    {
      "constant": true,
      "inputs": [],
      "name": "_stava",
      "outputs": [
        {
          "internalType": "uint256",
          "name": "",
          "type": "uint256"
        }
      ],
      "payable": false,
      "stateMutability": "view",
      "type": "function"
    },
    {
      "constant": true,
      "inputs": [],
      "name": "better",
      "outputs": [
        {
          "internalType": "address",
          "name": "",
          "type": "address"
        }
      ],
      "payable": false,
      "stateMutability": "view",
      "type": "function"
    },
    {
      "constant": true,
      "inputs": [],
      "name": "bettingNumber",
      "outputs": [
        {
          "internalType": "string",
          "name": "",
          "type": "string"
        }
      ],
      "payable": false,
      "stateMutability": "view",
      "type": "function"
    },
    {
      "constant": true,
      "inputs": [],
      "name": "house",
      "outputs": [
        {
          "internalType": "address",
          "name": "",
          "type": "address"
        }
      ],
      "payable": false,
      "stateMutability": "view",
      "type": "function"
    },
    {
      "constant": true,
      "inputs": [],
      "name": "state",
      "outputs": [
        {
          "internalType": "enum NewLottery.State",
          "name": "",
          "type": "uint8"
        }
      ],
      "payable": false,
      "stateMutability": "view",
      "type": "function"
    },
    {
      "constant": true,
      "inputs": [],
      "name": "winningNumber",
      "outputs": [
        {
          "internalType": "string",
          "name": "",
          "type": "string"
        }
      ],
      "payable": false,
      "stateMutability": "view",
      "type": "function"
    },
    {
      "constant": false,
      "inputs": [],
      "name": "lotteryOutcome",
      "outputs": [],
      "payable": false,
      "stateMutability": "nonpayable",
      "type": "function"
    },
    {
      "constant": false,
      "inputs": [
        {
          "internalType": "uint256",
          "name": "bet",
          "type": "uint256"
        }
      ],
      "name": "userInput",
      "outputs": [],
      "payable": false,
      "stateMutability": "nonpayable",
      "type": "function"
    },
    {
      "constant": true,
      "inputs": [],
      "name": "getterBet",
      "outputs": [
        {
          "internalType": "uint256",
          "name": "",
          "type": "uint256"
        }
      ],
      "payable": false,
      "stateMutability": "view",
      "type": "function"
    },
    {
      "constant": true,
      "inputs": [],
      "name": "getAddress",
      "outputs": [
        {
          "internalType": "address",
          "name": "",
          "type": "address"
        }
      ],
      "payable": false,
      "stateMutability": "view",
      "type": "function"
    },
    {
      "constant": false,
      "inputs": [],
      "name": "bet",
      "outputs": [],
      "payable": true,
      "stateMutability": "payable",
      "type": "function"
    },
    {
      "constant": true,
      "inputs": [
        {
          "internalType": "string",
          "name": "a",
          "type": "string"
        },
        {
          "internalType": "string",
          "name": "b",
          "type": "string"
        }
      ],
      "name": "compareStrings",
      "outputs": [
        {
          "internalType": "bool",
          "name": "",
          "type": "bool"
        }
      ],
      "payable": false,
      "stateMutability": "pure",
      "type": "function"
    },
    {
      "constant": true,
      "inputs": [],
      "name": "rand",
      "outputs": [
        {
          "internalType": "uint256",
          "name": "",
          "type": "uint256"
        }
      ],
      "payable": false,
      "stateMutability": "view",
      "type": "function"
    }
  ],
  "bytecode": "0x608060405233600160006101000a81548173ffffffffffffffffffffffffffffffffffffffff021916908373ffffffffffffffffffffffffffffffffffffffff1602179055506000600560006101000a81548160ff0219169083600281111561006457fe5b0217905550610d6c806100786000396000f3fe6080604052600436106100c25760003560e01c8063718c7d441161007f578063bed34bba11610059578063bed34bba1461035b578063c19d93fb146104d2578063f879b87f1461050b578063ff9b3acf14610522576100c2565b8063718c7d441461024957806377d88253146102a05780639e63d7e5146102cb576100c2565b806311610c25146100c757806318a3ae0c146100d157806338cc4831146100fc5780633b3dca76146101535780634664611e1461017e57806352fc48551461020e575b600080fd5b6100cf610579565b005b3480156100dd57600080fd5b506100e66105c2565b6040518082815260200191505060405180910390f35b34801561010857600080fd5b506101116105c8565b604051808273ffffffffffffffffffffffffffffffffffffffff1673ffffffffffffffffffffffffffffffffffffffff16815260200191505060405180910390f35b34801561015f57600080fd5b506101686105d5565b6040518082815260200191505060405180910390f35b34801561018a57600080fd5b506101936106f0565b6040518080602001828103825283818151815260200191508051906020019080838360005b838110156101d35780820151818401526020810190506101b8565b50505050905090810190601f1680156102005780820380516001836020036101000a031916815260200191505b509250505060405180910390f35b34801561021a57600080fd5b506102476004803603602081101561023157600080fd5b810190808035906020019092919050505061078e565b005b34801561025557600080fd5b5061025e610798565b604051808273ffffffffffffffffffffffffffffffffffffffff1673ffffffffffffffffffffffffffffffffffffffff16815260200191505060405180910390f35b3480156102ac57600080fd5b506102b56107be565b6040518082815260200191505060405180910390f35b3480156102d757600080fd5b506102e06107c7565b6040518080602001828103825283818151815260200191508051906020019080838360005b83811015610320578082015181840152602081019050610305565b50505050905090810190601f16801561034d5780820380516001836020036101000a031916815260200191505b509250505060405180910390f35b34801561036757600080fd5b506104b86004803603604081101561037e57600080fd5b810190808035906020019064010000000081111561039b57600080fd5b8201836020820111156103ad57600080fd5b803590602001918460018302840111640100000000831117156103cf57600080fd5b91908080601f016020809104026020016040519081016040528093929190818152602001838380828437600081840152601f19601f8201169050808301925050505050505091929192908035906020019064010000000081111561043257600080fd5b82018360208201111561044457600080fd5b8035906020019184600183028401116401000000008311171561046657600080fd5b91908080601f016020809104026020016040519081016040528093929190818152602001838380828437600081840152601f19601f820116905080830192505050505050509192919290505050610865565b604051808215151515815260200191505060405180910390f35b3480156104de57600080fd5b506104e7610954565b604051808260028111156104f757fe5b60ff16815260200191505060405180910390f35b34801561051757600080fd5b50610520610967565b005b34801561052e57600080fd5b50610537610b34565b604051808273ffffffffffffffffffffffffffffffffffffffff1673ffffffffffffffffffffffffffffffffffffffff16815260200191505060405180910390f35b610584600454610b59565b60029080519060200190610599929190610c92565b506105aa6105a56105d5565b610b59565b600390805190602001906105bf929190610c92565b50565b60045481565b6000803090508091505090565b600080434233604051602001808273ffffffffffffffffffffffffffffffffffffffff1673ffffffffffffffffffffffffffffffffffffffff1660601b81526014019150506040516020818303038152906040528051906020012060001c8161063a57fe5b04454241604051602001808273ffffffffffffffffffffffffffffffffffffffff1673ffffffffffffffffffffffffffffffffffffffff1660601b81526014019150506040516020818303038152906040528051906020012060001c8161069d57fe5b0444420101010101604051602001808281526020019150506040516020818303038152906040528051906020012060001c905060646103e88083816106de57fe5b04028203816106e957fe5b0691505090565b60038054600181600116156101000203166002900480601f0160208091040260200160405190810160405280929190818152602001828054600181600116156101000203166002900480156107865780601f1061075b57610100808354040283529160200191610786565b820191906000526020600020905b81548152906001019060200180831161076957829003601f168201915b505050505081565b8060048190555050565b600160009054906101000a900473ffffffffffffffffffffffffffffffffffffffff1681565b60006032905090565b60028054600181600116156101000203166002900480601f01602080910402602001604051908101604052809291908181526020018280546001816001161561010002031660029004801561085d5780601f106108325761010080835404028352916020019161085d565b820191906000526020600020905b81548152906001019060200180831161084057829003601f168201915b505050505081565b6000816040516020018082805190602001908083835b6020831061089e578051825260208201915060208101905060208303925061087b565b6001836020036101000a03801982511681845116808217855250505050505090500191505060405160208183030381529060405280519060200120836040516020018082805190602001908083835b6020831061091057805182526020820191506020810190506020830392506108ed565b6001836020036101000a0380198251168184511680821785525050505050509050019150506040516020818303038152906040528051906020012014905092915050565b600560009054906101000a900460ff1681565b600080600281111561097557fe5b600560009054906101000a900460ff16600281111561099057fe5b1461099a57600080fd5b6000610ada60028054600181600116156101000203166002900480601f016020809104026020016040519081016040528092919081815260200182805460018160011615610100020316600290048015610a355780601f10610a0a57610100808354040283529160200191610a35565b820191906000526020600020905b815481529060010190602001808311610a1857829003601f168201915b505050505060038054600181600116156101000203166002900480601f016020809104026020016040519081016040528092919081815260200182805460018160011615610100020316600290048015610ad05780601f10610aa557610100808354040283529160200191610ad0565b820191906000526020600020905b815481529060010190602001808311610ab357829003601f168201915b5050505050610865565b90508015610b0b576001600560006101000a81548160ff02191690836002811115610b0157fe5b0217905550610b30565b6002600560006101000a81548160ff02191690836002811115610b2a57fe5b02179055505b5050565b6000809054906101000a900473ffffffffffffffffffffffffffffffffffffffff1681565b60606000821415610ba1576040518060400160405280600181526020017f30000000000000000000000000000000000000000000000000000000000000008152509050610c8d565b600082905060005b60008214610bcb578080600101915050600a8281610bc357fe5b049150610ba9565b6060816040519080825280601f01601f191660200182016040528015610c005781602001600182028038833980820191505090505b50905060008290505b60008614610c85576001810390506000600a808881610c2457fe5b04028703603001905060008160f81b905080848481518110610c4257fe5b60200101907effffffffffffffffffffffffffffffffffffffffffffffffffffffffffffff1916908160001a905350600a8881610c7b57fe5b0497505050610c09565b819450505050505b919050565b828054600181600116156101000203166002900490600052602060002090601f016020900481019282601f10610cd357805160ff1916838001178555610d01565b82800160010185558215610d01579182015b82811115610d00578251825591602001919060010190610ce5565b5b509050610d0e9190610d12565b5090565b610d3491905b80821115610d30576000816000905550600101610d18565b5090565b9056fea265627a7a72315820186039cbd56699361a61d2629ebc045874c3aba59f286a1d07c0882e413889e064736f6c63430005100032",
  "source": "pragma solidity ^0.5.16;\n\ncontract NewLottery {\n\n    event BettingPhase();\n    /*struct Bet {\n       uint256 _stava; \n    }*/\n\n\n    address public house;\n    address public better;\n    string public bettingNumber;\n    string public winningNumber;\n    //Bet public memory _stava;\n    uint256 public _stava;\n\n    enum State { BettingPhase, Win, Loss } //bo vrednosti 0, 1 ali 2\n    State public state;\n\n    constructor() public payable {\n        better = msg.sender;\n        state = State.BettingPhase;  \n    }\n\n    //preverja v kakšnem stanju je runda loterije\n    modifier inState(State _state) {\n        require(state == _state);\n        _; //nujno met\n    }\n\n    modifier condition(bool _condition) {\n        require(_condition);\n        _;\n    }\n\n    //z modififerjem izid loterije evaluira\n    function lotteryOutcome() public inState(State.BettingPhase) {\n        bool izid = compareStrings(bettingNumber, winningNumber);\n        if(izid) { //1 pomeni zmaga\n            state = State.Win;\n        } else { //2 pomeni več sreče prihodnjič\n            state = State.Loss;\n        }\n    }\n\n    //stavi od 1-100\n    function userInput(uint256 bet) public {\n        _stava = bet;\n    }\n\n    function getterBet() public view returns (uint256) {\n        return 50;\n    }\n\n    //vrne naslov pogodbe\n    function getAddress() public view returns (address) {  \n       address myaddress = address(this); //contract address  \n       return myaddress;  \n    }\n\n    //izvedi naš bet (kliknit moraš v remixu)\n    function bet() public payable {\n        bettingNumber = uint2str(_stava);\n        winningNumber = uint2str(rand());\n    }\n\n    //int to string conversion\n    function uint2str(uint _i) internal pure returns (string memory _uintAsString) {\n        if (_i == 0) {\n            return \"0\";\n        }\n        uint j = _i;\n        uint len;\n        while (j != 0) {\n            len++;\n            j /= 10;\n        }\n        bytes memory bstr = new bytes(len);\n        uint k = len;\n        while (_i != 0) {\n            k = k-1;\n            uint8 temp = (48 + uint8(_i - _i / 10 * 10));\n            bytes1 b1 = bytes1(temp);\n            bstr[k] = b1;\n            _i /= 10;\n        }\n        return string(bstr);\n    }\n\n    //preveri winning in betting number kot string\n    function compareStrings (string memory a, string memory b) public pure returns (bool){\n       return keccak256(abi.encodePacked(a)) == keccak256(abi.encodePacked(b));\n\t}\n\n    //vrne naključno število med 1 in 100\n    function rand() public view returns(uint256) {\n        uint256 seed = uint256(keccak256(abi.encodePacked(\n            block.timestamp + block.difficulty +\n            ((uint256(keccak256(abi.encodePacked(block.coinbase)))) / (now)) +\n            block.gaslimit + \n            ((uint256(keccak256(abi.encodePacked(msg.sender)))) / (now)) +\n            block.number\n        )));\n        return ((seed - ((seed / 1000) * 1000)) % 100);\n        //return 20;\n    }\n}",
  "sourcePath": "/Users/luka/Desktop/ReactLothereum/blockchain/contracts/contracts/NewLottery.sol",
  "compiler": {
    "name": "solc",
    "version": "0.5.16+commit.9c3226ce.Emscripten.clang"
  },
  "schemaVersion": "3.4.4",
  "updatedAt": "2022-01-11T21:27:38.439Z",
  "devdoc": {
    "methods": {}
  },
  "userdoc": {
    "methods": {}
  }
}